:020000040800F2
:100000001809002059020008E1370008853400086B
:10001000DD370008710400083947000800000000BF
:10002000000000000000000000000000313900085E
:100030008D04000800000000E5370008713A000850
:1000400073020008730200087302000873020008BC
:1000500073020008730200087302000873020008AC
:10006000730200087302000873020008730200089C
:10007000730200087302000873020008730200088C
:100080007504000881040008730200087302000868
:10009000730200087302000873020008910400084C
:1000A000730200087302000873020008730200085C
:1000B0007302000800000000000000007302000846
:1000C0007302000800000000000000007302000836
:1000D00000000000730200082D4700080000000027
:1000E0007302000873020008000000000000000016
:1000F0000000000000000000000000000000000000
:100100000000000000000000000000007302000872
:1001100000000000000000007302000873020008E5
:1001200073020008730200087302000873020008DB
:100130007302000800000000000000000000000042
:1001400073020008730200087302000873020008BB
:1001500073020008730200087302000873020008AB
:100160007302000873020008730200080000000018
:100170007302000873020008000000000000000085
:1001800073020008730200087302000800F002F80E
:1001900000F052F814A696E8000CB244B344DA45D5
:1001A00001D100F049F8BAE80F000FA696E8300038
:1001B000A5EB040504EB0607AAEB0704A7F101076A
:1001C0004FEA15154FEA3414A4F10104AC4201D3EF
:1001D00000F032F813F0010F18BFFB1A43F00103CF
:1001E00000F001F8DBE71847F86F00001870000016
:1001F000103A24BF78C878C1FAD8520724BF30C853
:1002000030C144BF04680C607047000070470000B4
:100210000023002400250026103A28BF78C1FBD80F
:10022000520728BF30C148BF0B6070471FB506F0AA
:1002300054FF1FBD10B510BD00F0E4F81146FFF7E4
:10024000F5FF05F021F800F002F903B4FFF7F2FF23
:1002500003BC00F005F90000094880470948004741
:10026000FEE7FEE7FEE7FEE7FEE7FEE7FEE7FEE766
:10027000FEE7FEE704480549054A064B70470000C3
:10028000753A00088D0100081803002018090020A5
:10029000180500201805002053EA020C00F06980C0
:1002A0002DE9F04B4FF00006002B1FBFB3FA83F58A
:1002B00003FA05F424FA05F65E4012BF1643B2FABB
:1002C00082F502FA05F4C5F120051EBF22FA05FCED
:1002D00044EA0C04203556EA044C4FEA144418BF93
:1002E000641C4FF000084FF00009904271EB030CC2
:1002F00039D3002919BFB1FA81F701FA07F6B0FA2C
:1003000080F700FA07F6C7F120071EBF20FA07FCA6
:1003100046EA0C062037B6FBF4FCA7EB0507103FB6
:1003200007F01F0BCBF120062CFA06F60CFA0BFB9C
:1003300044BFB3460026202FA4BF5E464FF0000BFB
:100340005BEA060C08BF4FF0010B19EB0B0948EBF9
:100350000608ABFB027C06FB02CC0BFB03CCC01BEC
:1003600071EB0C01C1E70B46024641464846BDE829
:10037000F08B13B5084318BF4FF0FF300146AFF3C1
:100380000080BDE81C4070474FF0000200B51346E6
:1003900094469646203922BFA0E80C50A0E80C50A5
:1003A000B1F12001BFF4F7AF090728BFA0E80C5056
:1003B00048BF0CC05DF804EB890028BF40F8042B4F
:1003C00008BF704748BF20F8022B11F0804F18BFBC
:1003D00000F8012B704770477047704710B500F068
:1003E00009F8006810BD10B5044600F003F8046079
:1003F00010BD000000487047100000200048704702
:10040000100000207546FFF7F9FFAE46050069466B
:10041000534620F00700854618B020B5FFF72AFFA5
:10042000BDE820404FF000064FF000074FF00008F5
:100430004FF0000BAC46ACE8C009ACE8C009ACE832
:10044000C009ACE8C00921F007018D46704710B51E
:100450000446AFF300802046BDE81040FFF7F5BE2C
:1004600001491820ABBEFEE72600020070470000DD
:10047000FEE7000040F2D000C2F2000000F082B8B7
:1004800040F21810C2F2000000F07CB87047000083
:1004900010B540F27004C2F20004A11C522004F016
:1004A0005FF96178A2780843072A607009D804F1DF
:1004B0001201522004F046F961780843607001206F
:1004C000E070522004F03AF9617801432020617015
:1004D000BDE8104000F07CB9EFF3108072B600BFA9
:1004E000FEE70000014690F82500022818D10868B0
:1004F000D1E910C3026822F00E020260026822F005
:100500000102026003F01C00012202FA00F0CCF8A4
:10051000040081F825200020002281F82420704763
:100520000420C8630120002281F8242070470000C5
:1005300090F82510022921D180B50268D0F838C082
:10054000D0E910E1136801F01C0123F00E031360E1
:100550001368BCF1000F23F0010313604FF0010298
:1005600002FA01F1CEF804104FF0000180F82520C6
:1005700080F8241018BFE047002080BD0421C1632B
:1005800001207047B0B5D0E910C30268DCF8001054
:1005900003F01C030424D2F800E09C400C4218BF76
:1005A0001EF0040520D102249C400C4218BF1EF00E
:1005B000020529D1D940090714D51EF0080108BF4A
:1005C000B0BD116821F00E011160012101FA03F2A2
:1005D000CCF80420C16380F82510416B002280F81C
:1005E000242069B9B0BD00BF1168890603D4116821
:1005F00021F004011160CCF80440016B0029F1D016
:10060000BDE8B040084700BF1168890606D41168EC
:1006100021F00A011160012180F82510CCF8044076
:10062000C16A0022002980F82420E9D1DAE700001D
:10063000002804BF012070472DE9F04740F2000C6C
:10064000C4F2020C02684FF6F8310CF5816ECBF65D
:10065000FD71724538BF01F580614CF6CD43114400
:10066000CCF6CC43A1FB03136FF0030100F10809A2
:100670000CF5806701EA930A4FF0020399E8100332
:100680003CBF0027C4F20207C0E9107A80F8253089
:10069000136847F6F077BB43D0E9057543EA0803D2
:1006A00043EA0903D0E907613B432B433343194332
:1006B0002143B4F5804F116015D04FF495640AF0D2
:1006C0001C010F23724538BFA8245CF804208B401E
:1006D0009A434CF8042042685CF8043002FA01F1B5
:1006E00019434CF8041000210122C16380F8252031
:1006F00080F824100020BDE8F087000090F824C0A6
:10070000BCF1010F04BF02207047F0B54FF0010E9D
:1007100080F824E090F825C0BCF1010F2AD14FF0F9
:10072000020C80F825C04FF0000CC0F83CC0D0F897
:1007300000C08468056B066CDCF80070102C27F094
:100740000107CCF80070406C00F01C000EFA00F0BD
:1007500070600846CCF8043004BF10460A46CCF856
:100760000800CCF80C20DCF800004DB140F00E0081
:100770000EE000BF002180F824100220F0BD00BF71
:1007800020F00400CCF80000DCF8000040F00A0083
:10079000CCF80000DCF8000040F00100CCF80000CC
:1007A0000020F0BDB0B5044600F000F9054640F267
:1007B0000400C2F200000078611C18BF044400BFAE
:1007C00000F0F4F8401BA042FAD3B0BD704700001F
:1007D00040F21441C4F201010A68024214BF0860E9
:1007E0007047FFF7F3BF00002DE9F04F83B00C68AE
:1007F000002C00F0CF8000F1200240F2004E009269
:1008000040F60002C4F2010EC4F6000207230025E0
:1008100000274FF00008904208BF022301934DE0EB
:1008200040F20042C4F60002DDF80490904208BF96
:100830004FF0010905F00C060F22B2402CEA02022B
:1008400009FA06F64FEA9803324344F82320DEF80B
:1008500008204B6842EA0A0640F20C4CDC0258BF02
:1008600022EA0A06CEF80860C4F2010CDCF8002087
:100870009C0242EA0A0658BF22EA0A06CCF8006047
:10088000DEF804209C0342EA0A0658BF22EA0A0660
:10089000CEF80460DEF80020DB0342EA0A0658BF07
:1008A00022EA0A06CEF800600C6808F1010834FA62
:1008B00008F207F1020705F104056BD0012202FAE4
:1008C00008FC14EA0C0AEFD0D1F804B003230BF0B3
:1008D0000304621E03FA07F6012A6FEA060911D81B
:1008E0008268CE6802EA0902BE40324382604268F2
:1008F000CBF3001622EA0C0206FA08F632434260F5
:1009000004E000BF032C01D103241EE0C2688E68FE
:1009100002EA0902BE403243022CC26015D16FF0D8
:10092000030202EA580B009A05F01C0452F80BC0AF
:100930000F230E69A3402CEA0303A640334342F879
:100940000B30D1F804B00BF00304026804FA07F38B
:1009500002EA09021A431BF4403F0260A4D041F2AC
:100960006003C4F202031A68AEF57E7442F001021D
:100970001A601A68B0F1904F02F001020292029AD6
:1009800028F0030254F802C07FF44AAF4FF0000988
:1009900050E700BF03B000F000B830BCBDE8C08F26
:1009A0001823002A08BF2823C150704740F2143092
:1009B000C2F200000068704790F84120202A03D15D
:1009C00090F84020012A01D102207047242280F8AB
:1009D00041200268136823F001031360136823F4B5
:1009E00080531360136819431160116841F00101CD
:1009F0001160202180F84110002180F84010002073
:100A00007047000090F84120202A03D190F8402040
:100A1000012A01D102207047242280F84120026877
:100A2000136823F001031360136823F4706343EA2F
:100A300001211160116841F001011160202180F84D
:100A40004110002180F8401000207047002804BFAA
:100A50000120704710B590F8411031B9002180F89D
:100A60004010044600F092FA2046242180F84110FC
:100A700090E81210C3680A68012B22F001020A6094
:100A800024F070620A618A6822F400428A6003D10D
:100A90004CF400428A6009E04CF40442022B8A6064
:100AA00004D14A6842F4006203E000BF4A6822F4BD
:100AB00000624A604A6800F1100C42F0007242F491
:100AC00000424A60CA6822F40042CA609CE81C10D6
:100AD0001A4342EA0422CA60026A42EA0C020A602D
:100AE0000A6842F001020A6000212022416480F875
:100AF0004120016380F84210002010BD2DE9F04F25
:100B000081B0044690F8410020280AD10A9F6FB1B5
:100B1000DDF82CA0BAF1000F08D094F840000128AD
:100B20000CD1022001B000F00DB900BF4FF40070ED
:100B30006064012001B000F005B900BF01201E462D
:100B400090468B4684F84000FFF730FF2168054649
:100B50008A69120449D4222084F8410040204FF0D1
:100B6000000984F84200C4F844906762A4F82AA0FF
:100B7000C4F8349049F600034A68CFF600436FF397
:100B80009F2BF0B24BEA00401A40DDF830C0104411
:100B900000F500504860204661462A46DA4667461E
:100BA0009B4602F0CFFDB8B92068012E09D04FEA6C
:100BB00018218162204639462A4602F0C3FD58B901
:100BC00020685FFA88F181622046402100223B467E
:100BD000009502F007FD48B384F84090012001B071
:100BE00000F0B0B888690004B5D5204619212A461E
:100BF00002F04AFC00289CD1FFF7D8FE401B216878
:100C00001A28EFD388690004ECD5606C40F020000E
:100C10006064202084F84100002084F8420084F8B9
:100C20004000012001B000F08DB800BF608D0023AE
:100C3000B0F5807FC0F201130AD320689C4650F8BB
:100C4000041F03F5105301EA0B0201210EE000BF5F
:100C5000618D20689C4650F8042FCBB202EA0B024B
:100C600042EA034242F20043C0F200231A4342EA3E
:100C70000A020AF100784FF001090BF58066E3469D
:100C8000026021850CE000BF608D216820854A68E4
:100C9000C0B248EA0040324010434860608DA8B3BB
:100CA0002046042100223B46009502F09BFC0028D0
:100CB0007FF43FAF2068616A406A0870606A218DE6
:100CC00001306062481E2085618D01396185618D2A
:100CD0000029E3D00004E1D12046802100223B46D8
:100CE000009502F07FFC00287FF423AF608DB0F503
:100CF000807FC9D32068A4F828904168314041EA38
:100D00000A0141EA0B014160C8E700BF20463946AD
:100D10002A4602F0D9FC00287FF40BAF206820217E
:100D2000C16142684EF60003CFF600631A4042608C
:100D3000002084F8411084F8420084F8400001B09B
:100D400000F000B830BCBDE8C08F00002DE9F04FC6
:100D500083B0044690F84100202807D10C9F4FB182
:100D60000D9E3EB194F8400001280BD1022003B043
:100D700000F008B94FF400706064012003B000F087
:100D800001B900BF01209A4691468B4684F8400085
:100D9000FFF70CFE216805468A6912044FD4212012
:100DA0000E9A84F8410040204FF000086FF39F2B0B
:100DB00049F6004384F84200C4F8448067626685BF
:100DC000C4F83480CDF808B0CFF600435FFA8AF05B
:100DD00016464A684BEA00409B46A3F580631A40DA
:100DE000104440F0807040F4005048602046314686
:100DF0002A4602F0A7FCC0B92068BAF1010F09D059
:100E00004FEA19218162204631462A4602F09AFCB7
:100E100058B920685FFA89F181622046802100225A
:100E20003346009502F0DEFB50B384F84080012089
:100E300003B000F0A7B800BF88690004AFD5204612
:100E400019212A4602F020FB002896D1FFF7AEFDBB
:100E5000401B21681A28EFD388690004ECD5606C28
:100E600040F020006064202084F84100002084F8D5
:100E7000420084F84000012003B000F083B800BFB6
:100E8000608D40F20009B0F5807FC0F2FF1907D3F2
:100E900020684B4650F8041F01EA0B02FF210AE0CC
:100EA000618D2068CBB250F8042F02EA0B0242EAAF
:100EB00003424FF00073029F1A433A4307F1007751
:100EC0004FF0FF08026021850DE000BF608D2168B2
:100ED00020854A68C0B247EA004002EA0B0210438C
:100EE0004860608D90B3204631462A4602F02AFCC5
:100EF00000287FF442AF606A216810F8012B8A62F3
:100F00006062608D01386085208D01382085618D9B
:100F10000029E6D00004E4D1204680210022334697
:100F2000009502F05FFB00287FF427AF608DB0F5DD
:100F3000807FCBD32068A4F828804168029A01EA18
:100F40000B01114341EA09014160CAE720463146DD
:100F50002A4602F0B9FB00287FF40FAF2068202159
:100F6000C16142684EF60003CFF600631A4042604A
:100F7000002084F8411084F8420084F8400003B057
:100F800000F000B830BCBDE8C08F000010B59CB0C8
:100F9000044600201B90CDE91900CDE9170002A8F6
:100FA00004305021FFF7F0F9206845F20041C4F207
:100FB0000001884202D01CB010BD00BF402002904A
:100FC00002A800F035F9002818BFFFF785FA41F2B2
:100FD0004C04C4F20204206817A940F0020020600B
:100FE000206800F0020001900198C02017901220A4
:100FF00018900020199003201A9004201B9040F2B2
:101000000040C4F60000FFF7EFFB0420C4F201002B
:10101000016841F480310160016841F400310160F0
:10102000E06840F40010E060E06800F40010019017
:1010300001981CB010BD000040F2040040F21431D1
:10104000C2F20000C2F2000100780A681044086091
:101050007047000080B5032000F08CF80F2000F0EE
:1010600009F800281CBF012080BD00F02BF80020EB
:1010700080BD0000B0B540F20405C2F20005297839
:10108000F1B1044640F20C00C2F200004FF47A7253
:101090000068B2FBF1F1B0FBF1F000F0B5FF0146E2
:1010A0000F2C4FF001000AD8002918BFB0BD4FF037
:1010B000FF302146002200F031F800206C60B0BD06
:1010C0000120B0BD82B041F25800C4F20200816834
:1010D00041F001018160816801F0010101910199F4
:1010E000016841F080510160006800F0805000907C
:1010F000009802B070470000002848BF704700F019
:101100001F01012202FA01F11C2202EAD0004EF274
:101110000012CEF2000281507047000010B54EF66A
:101120000C5CCEF2000CDCF80030C3F3022E8EF023
:101130000704042C28BF0424BEF103034FF0FF3E34
:101140000EFA04F438BF0023A14399400EFA03F3CA
:101150009A43114300F00F0200F160430901043A81
:1011600003F564436244002848BF02F10C03197080
:1011700010BD00004EF60C51CEF200010A684FF689
:10118000FF031A4060F30A2242F0806040F0FD70D5
:101190000860704747F20001C4F200010A68B0F528
:1011A000007F02F4C06031D1B0F5007F2CD0086818
:1011B000012262F34A20086040F20C00C2F20000F3
:1011C0000068322250434DF68362C4F21B32A0FB0A
:1011D0000202900C4A69520511D5421C0FD04A698F
:1011E00052050CD558B14A69520508D5012806D0D8
:1011F0004A69520503D50228A0F10400EAD14869E2
:10120000400544BF0320704700207047B0F5806F51
:10121000FAD00868022262F34A2008600020704772
:1012200047F20000C4F20000006800F4C06070479C
:101230002DE9F04381B00446407841F28807000769
:10124000C4F202071ED5E06B80B1B0F5400F14D098
:10125000B0F5000F40F0148157F87C0C40F480305A
:1012600047F87C0C4FF4000007E000BF201D002170
:1012700002F0BAFA814638B9E06B396821F44001CE
:10128000084338604FF00009A078800752D557F81E
:10129000300C5FEAC0080BD457F8300C40F0805097
:1012A00047F8300C57F8300C00F080500090009850
:1012B00047F20005C4F20005286840F480702860F9
:1012C000FFF774FB064600BF2868C00508D4FFF787
:1012D0006DFB801B0228F7D94FF0030921E000BF06
:1012E000B9F1000F1DD1B86810F4407011D0216D14
:1012F00088420BD0B868B96820F4407041F480315E
:10130000B960B96821F48031B960B860C00740F0B5
:10131000BF80B868216D20F4407008434FF0000989
:10132000B860B8F1000F05D457F8300C20F08050A9
:1013300047F8300C2168C8070ED1880714D48806F6
:101340001AD4880520D4480526D448062CD4C805CC
:1013500032D4880438D449E03868226A20F0030087
:10136000104338608807EAD53868626A20F00C00BC
:10137000104338608806E4D53868A26A20F44060DB
:10138000104338608805DED53868626B20F4402051
:10139000104338604805D8D53868A26B20F4401057
:1013A000104338604806D2D53868E26A20F44050CD
:1013B00010433860C805CCD53868226B20F4403023
:1013C00010433860880411D53A68206C22F04062DE
:1013D0000243B0F1806F3A601ED0B0F1006F05D1CA
:1013E00057F87C0C40F4801047F87C0C480327D554
:1013F0003A68606C22F040620243B0F1806F3A605C
:1014000016D0B0F1006F1BD157F87C0C40F480105F
:1014100047F87C0C14E000BF201D012102F0E4F924
:101420002168002818BF81464803E1D408E000BFC6
:10143000201D012102F0D8F92168002818BF81463B
:10144000480410D53868A26C20F040501043B2F127
:10145000805F386007D1201D022102F0C5F92168A4
:10146000002818BF8146080405D53868E16C20F0D3
:10147000804008433860484601B0BDE8F08300BFB3
:101480004FF00109A07880073FF501AF52E700BF98
:10149000FFF78CFA064641F288354FF0030900BF8A
:1014A000B86880073FF535AFFFF780FA801BA84288
:1014B000F6D936E72DE9F04381B0002800F08C80A2
:1014C00042F20009C4F202090446D9F8000000F013
:1014D000070081420CD9D9F8000020F0070008432A
:1014E000C9F80000D9F8000000F00700884273D165
:1014F000206841F2080610F00202C4F202060AD087
:10150000A368376807F0F007BB4204D9376827F0B3
:10151000F0073B433360C30734D0606856F8082CAB
:1015200050B1022804D003280AD192010AD453E012
:10153000920307D450E000BF920703D44CE000BFF1
:10154000520549D58846316821F0030108433060CF
:10155000FFF72CFA054641F2883700BF3068616812
:1015600000F00C00B0EB810F08D0FFF71FFA401B12
:10157000B842F3D9032001B0BDE8F08320684146AA
:1015800000F0020252B1A268336803F0F0039A42FD
:1015900004D2336823F0F0031A433260D9F80020F4
:1015A00002F0070291420CD2D9F8002022F0070283
:1015B0000A43C9F80020D9F8002002F007028A4245
:1015C0000AD141070CD4000712D43068716810F0BA
:1015D0000C0019D11EE000BF012001B0BDE8F0836E
:1015E0003168E26821F4E061114331600007ECD515
:1015F0003068216920F4605040EAC10030603068F2
:10160000716810F00C0005D00C282BD101F00301FB
:10161000012927D156F8081C042211F008016FF0A7
:10162000070108BF8C21715808BF0822D14047F23A
:101630002C1201F00F01C0F6000252F82110002810
:101640000A4618BF00220C2838D1706800F0030049
:10165000022811D0032804BF41F20021C0F27A0110
:101660000EE000BF04281FD0082823D141F2002239
:10167000C0F27A0222E000BF42F20041C0F2F4015F
:1016800070687268C0F30210C2F306225143726898
:101690000130B1FBF0F0C2F34161022202EB4101E3
:1016A000B0FBF1F20AE000BF42F20042C0F2F402E5
:1016B00004E000BF002200210C28C6D0306847F2A9
:1016C0001411C0F30310C0F60001085C00F01F0005
:1016D00022FA00F140F20800C2F2000040F20C02CF
:1016E0000068C2F20002116001B0BDE8F043FFF7EC
:1016F000C1BC000040F20C0041F20801C2F200003F
:10170000C4F202010068096847F22412C1F3022101
:10171000C0F60002515C01F01F01C8407047000094
:1017200040F20C0041F20801C2F20000C4F20201D2
:101730000068096847F22412C1F3C221C0F6000212
:10174000515C01F01F01C8407047000041F20C01DC
:10175000C4F2020151F8040C10F00C02086805D024
:101760000C2A2BD100F00300012827D151F80C0CD2
:10177000042310F008006FF00B0008BF8820085801
:1017800008BF0823D84047F22C1300F00F00C0F622
:10179000000353F82030002A184618BF00200C2AF6
:1017A00018BF7047086800F00300022810D0032813
:1017B00004BF41F20023C0F27A030DE0042A1FD0D7
:1017C000082A23D141F20020C0F27A00704700BFFE
:1017D00042F20043C0F2F40308680A68C0F3021042
:1017E000C2F30622096801305A43B2FBF0F0C1F39C
:1017F0004161022202EB4101B0FBF1F0704700BFF2
:1018000042F20040C0F2F400704700BF0020002305
:10181000C5E70000002804BF012070472DE9F04310
:1018200083B041F200060446C4F20206B068F168D3
:10183000227800F00C09D00601F003081ED42078AD
:10184000C00700F08880B9F1080F00F07D80B9F181
:101850000C0F08BFB8F1030F76D061683068B1F59E
:10186000803F07D0B1F5A02F40F0528240F4802095
:101870003060306840F48030306053E2B9F1000FDE
:101880001CD0B9F10C0F08BFB8F1010F16D0A16937
:101890003068002900F0A08140F001003060FFF7BF
:1018A00085F805463068800700F1A881FFF77EF8CB
:1018B000401B02284FF00300F4D960E33068800732
:1018C00003D5A069002800F00F83256A306800075F
:1018D00000F14A81D6F89400000900F0F00085423A
:1018E00000F248813068B9F1000F40F00800306024
:1018F000306820F0F00040EA050030607068E1696F
:1019000020F47F4040EA0120706040F0B882B06D62
:10191000C00000F15582B06D40F08050B065B06DF0
:1019200000F0805002900298FFF77AFCB16D21F030
:101930008051B165B0F5007F00F04882802D40F203
:10194000858203208DE200BF3068800303D5606884
:10195000002800F0C982207880072DD5B9F1040F46
:101960001CD0B9F10C0F08BFB8F1020F16D0E16816
:101970003068002900F0E68140F480703060FFF7A5
:1019800015F80546306840050FD4FFF70FF8401BE7
:1019900002284FF00300F5D9F1E200BF306840059E
:1019A00003D5E068002800F09F827068216920F06C
:1019B000F85040EA016070602078000760D4207819
:1019C000400779D42078800600F1B280A06A002810
:1019D00000F01683022840F02381F068E16A00F0ED
:1019E00003028A4240F03481226B6FF00F0300F053
:1019F000700103EB0212914240F02A81616B00F406
:101A0000FE42B2EB012F40F02381A16B00F078423F
:101A1000B2EBC16F40F01C81E26B0023CFF6E073A4
:101A200003EA025200F4C001A2F50012914240F014
:101A30000F81216C4FF07E4202EA016100F0C0602C
:101A400001F17E41884240F003813068800100F15D
:101A5000D782306840F080703060F06840F080706D
:101A6000F060FEF7A3FF04463068800100F1C882F1
:101A7000FEF79CFF001B02284FF00300F4D97EE222
:101A80006169D6F89400002900F0908040F00100D0
:101A9000C6F89400FEF78AFF054600BFD6F894000A
:101AA00080078CD4FEF782FF401B0228F6D9032062
:101AB00003B0BDE8F08300BFB06D5FEAC00808D492
:101AC000B06D40F08050B065B06D00F08050009077
:101AD000009847F20007C4F200073868C00513D425
:101AE000386840F480703860FEF760FF054600BF3C
:101AF0003868C00508D4FEF759FF401B02284FF094
:101B00000300F5D93BE200BFA168D6F89000012997
:101B100008D0052940F0DC8040F00400C6F89000B1
:101B2000D6F8900040F00100C6F89000DCE000BF5D
:101B3000616AD6F89800002900F0B48040F00100F6
:101B4000C6F89800FEF732FF054600BFD6F89800A9
:101B500080073FF53BAFFEF729FF401B02284FF0FF
:101B60000300F3D90BE200BF306800F0F0008542BB
:101B70007FF6B8AEB06DC00000F18680B06D40F069
:101B80008050B065B06D00F0805001900198FFF773
:101B900047FBB16D21F08051B165B0F5007F79D080
:101BA000802D40F2E1800320E9E000BF20F0010039
:101BB000C6F89400FEF7FAFE054600BFD6F894007A
:101BC00080077FF5FCAEFEF7F1FE401B02284FF0C8
:101BD0000300F3D9D3E100BF20F001003060FEF72D
:101BE000E5FE0546306880077FF529AEFEF7DEFE8C
:101BF000401B02284FF00300F4D9C0E1306840F0E8
:101C0000080030603068D4E9071220F0F00010437B
:101C10003060706820F47F4040EA012070600EE67A
:101C2000B9F10C0F00F06081306820F080703060F6
:101C3000FEF7BCFE044600BF3068800140F1EA8038
:101C4000FEF7B4FE001B02284FF00300F4D996E122
:101C5000B9F10C0F00F048813068400100F1448177
:101C6000306820F080703060FEF7A0FE054600BFAF
:101C70003068800140F18681FEF798FE401B022803
:101C80004FF00300F4D97AE1FFF7CAFAB0F5007F0C
:101C90007FF486AF812D71D30120A02D88BF022053
:101CA0006DE000BF20F00100C6F89800FEF77EFE50
:101CB000054600BFD6F8980080077FF587AEFEF78F
:101CC00075FE401B02284FF00300F3D957E100BF17
:101CD00020F00100C6F89000D6F89000002920F00E
:101CE0000400C6F8900079D0FEF760FE054641F288
:101CF000883700BFD6F89000800700F18180FEF79A
:101D000055FE401BB842F5D9032003B0BDE8F0836F
:101D100020F4803030603068002920F4802030606A
:101D200000F08480FEF742FE054600BF3068800365
:101D30003FF511AEFEF73AFE401B64284FF003005A
:101D4000F4D91CE120F480703060FEF72FFE0546C8
:101D5000306840057FF530AEFEF728FE401B0228B4
:101D60004FF00300F4D90AE1A5F17000B0FA80F059
:101D70004009802D08BF022001E000BF002042F290
:101D80000001C4F202010A6822F0070202440A605C
:101D9000096801F00701814240F0A680306840F0F8
:101DA000080030603068D4E9071220F0F0001043DA
:101DB0003060706820F47F4040EA012070605EE08F
:101DC000FFF72EFAB0F5007F7FF4B8AD812D47D331
:101DD0000120A02D88BF022043E000BFFEF7E6FDF2
:101DE000054641F2883700BFD6F89000800707D536
:101DF000FEF7DCFD401BB8424FF00300F4D9BEE013
:101E0000B8F1000F3FF5DEADB06D20F08050B06549
:101E1000D8E500BFF0684FF6FC71CFF6EE610840E0
:101E2000F060002003B0BDE8F08300BFFEF7BEFD08
:101E3000054600BF306880037FF58DADFEF7B6FD27
:101E4000401B64284FF00300F4D998E0A5F170001E
:101E5000B0FA80F04009802D08BF022001E000BFE9
:101E6000002042F20001C4F202010A6822F00702D7
:101E700002440A60096801F00701814234D1B06868
:101E8000F16810F00C0005D00C2831D101F00301ED
:101E900001292DD1314651F8942B12F00802324617
:101EA00008BF0A464FF00401126808BF082122FA51
:101EB00001F147F22C1201F00F01C0F6000252F8B6
:101EC000211000280A4618BF00220C283CD1F068D7
:101ED00000F00300022815D0032804BF41F20021BE
:101EE000C0F27A0112E000BF012003B0BDE8F08328
:101EF00004281FD0082823D141F20022C0F27A0220
:101F000022E000BF42F20041C0F2F401F068F26842
:101F1000C0F30210C2F306225143F2680130B1FB54
:101F2000F0F0C2F34161022202EB4101B0FBF1F299
:101F30000AE000BF42F20042C0F2F40204E000BF37
:101F4000002200210C28C2D0B06847F21411C0F35F
:101F50000310C0F60001085C00F01F0022FA00F137
:101F600040F20800C2F2000040F20C020068C2F227
:101F700000021160FFF77EF800283FF460AC03B068
:101F8000BDE8F083F06848F28C01C0F29D1104F1C5
:101F90002C0700EA010C8ECF6FF00F00D4E90F542C
:101FA00000EB02100022CFF6E07241EA0C0102EAD7
:101FB00005520843A2F500124FF07E4540EA032087
:101FC00005EA0465104305F17E4540EAC7602843F1
:101FD000F060306840F080703060F06840F08070F1
:101FE000F060FEF7E3FC04463068800108D4FEF799
:101FF000DDFC001B02284FF00300F5D9BFE700BF4E
:10200000002003B0BDE8F083411E0020B0EB116F4B
:102010001CBF012070474EF21002CEF20002516048
:102020004EF62351CEF20001F0230B700721906091
:102030001160704790F83C20012A04BF02207047CD
:1020400010B5D1E90232D1E900CE22F47C5223F45A
:1020500070531A4348F2FF73CFF6F07303EA0E038E
:1020600042EA030E0A692CF477234EEA030C22F4A9
:1020700076224B6942EA0C021A438B6A22F47422DC
:1020800023F4702342EA030C8B69D0F800E042F697
:102090000042C4F2010296454CEA03430FD123F0FB
:1020A0007C72D1E9073C496A0024CFF6F04404EA87
:1020B0000151114323F00072114341EA0C03002146
:1020C000CEF8443080F83C10002010BD90F83C2041
:1020D000012A4FF002022DD010B580F83D20026891
:1020E00042F6004C5368D2F808E0C4F2010C624595
:1020F00003D14C6823F4700323430C6823F070036E
:102100002343B2F1804F536007D044F20003C4F27E
:1021100001039A4201D0624504D189682EF0800300
:10212000194391600121002280F83D1080F83C2085
:10213000BDE810401046704780B586B0006842F692
:102140000042C4F2010200219042CDE90411CDE920
:102150000211019102D006B080BD00BF41F24C00D7
:10216000C4F20200026842F001020260006800F05E
:102170000100009000984FF4807001900220CDE99A
:10218000020101200491059001A94FF09040FEF753
:102190002BFB06B080BD000090F83C30012B04BF43
:1021A000022070474FEAB202052A00F2C9812DE9E8
:1021B000F041DFE812F007002D019F00ED005F0005
:1021C000790100BF036842F600461D6A1A6A25F0CD
:1021D000020522F001021A621A46D3F804C052F82E
:1021E00018EF8F68D1F80080C4F20106B34245EAC7
:1021F00007050BD044F20047C4F20107BB4205D0EB
:1022000044F20007C4F20107BB4205D1CF6825F0B4
:102210000C0527F004073D43B3420BD044F20046BF
:10222000C4F20106B34205D044F20006C4F201062E
:10223000B34206D1D1E905672CF44074264346EA3F
:10224000070C4FF68C74CFF6FE740EEA040747EACB
:102250000807C3F804C09F614F6809695F631D6286
:102260009F6947F008079F619F6927F004079F61F6
:102270005BE100BF036842F60047D3F820C01A6A4A
:10228000C4F2010722F480321A621A465D6852F8DD
:10229000544FD1F800E08E68BB420BD044F20047A7
:1022A000C4F20107BB4205D044F20007C4F20107A3
:1022B000BB4204D14F6925F4803545EA07252CF44B
:1022C000003747EA06474FF68C76CFF6FE760336A0
:1022D000264046EA0E065D605E654E6809699E65A9
:1022E0001F625F6D47F008075F655F6D27F00407A9
:1022F0005F651AE1036842F600461F6A1A6A27F40E
:10230000007722F480721A621A465D6852F81CCF78
:102310008C68C4F20106B34247EA042409D1CF68AD
:1023200024F4406E3F0240F2FF4427EA040444EAEA
:102330000E04D1F800E0B3420BD044F20046C4F2E0
:102340000106B34205D044F20006C4F20106B342CE
:1023500006D1D1E9056725F440553E4345EA061507
:102360004FF68C76CFF6FE760CEA060747EA0E07A4
:102370005D60DF614F680969DF631C62DF6947F0F8
:102380000807DF61DF6927F00407DF61CDE000BFE8
:10239000036842F60047D3F820C01A6AC4F2010766
:1023A00022F480521A621A465C6852F81C5FD1F817
:1023B00000E08E68BB420BD044F20047C4F2010734
:1023C000BB4205D044F20007C4F20107BB4204D16E
:1023D0004F6924F4804444EA87142CF4005747EAF8
:1023E000063748F6FF46CFF6FF662E4046EA0E2631
:1023F0005C60DE614E6809691E641F62DF6947F434
:102400000067DF61DF6927F48067DF618CE000BF70
:10241000036842F600461F6A1A6A27F0200722F076
:1024200010021A621A465D6852F818CF8C68C4F21E
:102430000106B34247EA041408D124F0C00ECC6868
:102440006FF0400707EA041444EA0E04D1F800E0F4
:10245000B3420BD044F20046C4F20106B34205D0A9
:1024600044F20006C4F20106B34206D1D1E9056781
:1024700025F440653E4345EA860548F6FF46CFF61B
:10248000FF660CEA060747EA0E275D609F614F680A
:1024900009699F631C629F6947F400679F619F6998
:1024A00027F480679F613FE0036842F60047D3F856
:1024B00020C01A6AC4F2010722F480121A621A4676
:1024C0005D6852F8544FD1F800E08E68BB420BD0E3
:1024D00044F20047C4F20107BB4205D044F20007B2
:1024E000C4F20107BB4204D14F6925F4802545EAB7
:1024F00087252CF4001747EA065748F6FF46CFF623
:10250000FF6606F54076264046EA0E265D605E656B
:102510004E680969DE651F625F6D47F400675F659D
:102520005F6D27F480675F650902136819431160C6
:102530000021BDE8F041002280F83C2008467047A9
:102540000121002280F83C2008467047002804BF83
:1025500001207047B0B590F83D1031B9002180F8E6
:102560003C10044600F06AF82046022180F83D1035
:10257000016842F6004E0B68C4F2010E714502D0AC
:10258000B1F1804F03D1846823F07003234343F6F5
:10259000FF74C4F2010444F2004CA142C4F2010CE5
:1025A00006DCB1F1804F0BD0714509D00CE000BFC3
:1025B000614505D044F20004C4F20104A14203D1F4
:1025C000046923F440732343826923F08003446841
:1025D000C5681A4371450A60CD628C6218BF6145B7
:1025E00024D142690A6301224A610B69DB0703D0E7
:1025F0000B6923F001030B6180F8482080F83E202E
:1026000080F83F2080F8402080F8412080F8422068
:1026100080F8432080F8442080F8452080F8462048
:1026200080F8472080F83D200020B0BD44F2000231
:10263000C4F201029142D4D0D5E70000006842F60E
:102640000041C4F20101884218BF704781B041F2D5
:102650006000C4F20200016841F40061016000689A
:1026600000F400600090009801B0704780B5D9B1C7
:102670000B1F4FEAB30E43224FF03F0CBEF1040F85
:1026800038BF0CEBB302825C012A1CBF012080BD65
:10269000BEF1030F1ED8DFE80EF00319111500BFBD
:1026A000022280F83F2018E090F83E20012A1CBF4B
:1026B000012080BD022280F83E200EE0022280F838
:1026C00041200AE0022280F8422006E0022280F83F
:1026D000402002E0022280F84320026801F01F003F
:1026E0000121136A01FA00F023EA00011162116A64
:1026F000084343F6FF71C4F201018A42106209DC0B
:10270000B2F1804F22D042F60040C4F20100824272
:102710000CD028E044F20040C4F20100824205D00F
:1027200044F20000C4F2010082421CD1506C44F219
:102730000001C4F2010140F400408A42506405D017
:1027400042F60040C4F2010082420CD19068072199
:10275000C0F20101014006294FF0000008D0B1F598
:10276000803F08BF80BD106840F00100106000206D
:1027700080BD0000D0F88030202B1CBF02207047A5
:1027800010B5044600294FF0010018BF002A01D1FE
:1027900010BD00BF206600206066204601F082FD6B
:1027A0000028F5D1206E01281CBF012010BD206833
:1027B00010210162206850E8000F216840F01000ED
:1027C00041E8000202B3206850E8000F216840F0A1
:1027D000100041E80002BAB1206850E8000F2168FB
:1027E00040F0100041E8000272B1206850E8000F8C
:1027F000216840F0100041E80002002A4FF000007C
:1028000008BF10BDD6E700BF002010BD006844F22D
:102810000042C4F20002904218BF704740F27000BC
:10282000C2F20000827DFF2A12D0BB2A12D10229F7
:102830000ED1C17D06292BD0052921D0042909D12B
:1028400040F20001C2F2000133220A7002E000BF30
:102850000121017180B500F1160140F28820C2F219
:1028600000000222FFF786FF40F2D000C2F2000013
:102870000068016821F004010160BDE880407047F4
:1028800040F20001C2F2000130220A70E2E700BF0C
:1028900040F20001C2F2000136220A70DAE70000BD
:1028A00070470000006844F20041C4F20001884211
:1028B00018BF704780B508220A6202210162042114
:1028C000016240F27000C2F2000000F1160140F215
:1028D0008820C2F200000222FFF74CFF40F2D00035
:1028E000C2F200000068016821F004010160BDE847
:1028F0008040704770B5016840F62F03CA690E68C2
:102900008C681340202B06F0200E07D1BEF1000F7B
:1029100004D0816E41B3BDE87040084740F60F0314
:102920001A4209D040F22013C0F2004304F0010C17
:10293000334013EB0C0325D1036ED50616D5012BBE
:1029400014D116F0100311D010220A6289684906CA
:1029500030D4B0F85810B0F85A20B0F85A30002BE4
:1029600018BF914240F0448270BD00BFD30213D51E
:1029700014F4800310D04FF480120A62BDE8704056
:10298000FFF78EBFD30718BF16F4807340F0D280D4
:10299000930700F1D980E2E0110640F1E18116F0E1
:1029A000800100F0DD81C16E0029DDD0BDE87040FE
:1029B000084700BF416F0A685368B0F8584099B2A1
:1029C000002900F00382A14280F00082A0F85A3072
:1029D0001168890600F1A180016851E8001F0268B2
:1029E00021F4807142E80013DBB1016851E8001F57
:1029F000026821F4807142E8001393B1016851E844
:102A0000001F026821F4807142E800134BB1016895
:102A100051E8001F026821F4807142E80013002B86
:102A2000DAD1016851E8021F026821F0010142E891
:102A30000213C3B3016851E8021F026821F00101CB
:102A400042E802137BB3016851E8021F026821F0DB
:102A5000010142E8021333B3016851E8021F026822
:102A600021F0010142E80213002BDAD11BE000BF84
:102A7000016851E8021F026821F0400142E8021398
:102A8000DBB1016851E8021F026821F0400142E811
:102A9000021393B1016851E8021F026821F040015E
:102AA00042E802134BB1016851E8021F026821F0AD
:102AB000400142E80213002BDAD12021C0F8801037
:102AC00000210166016851E8001F026821F0100131
:102AD00042E80013DBB1016851E8001F026821F0F1
:102AE000100142E8001393B1016851E8001F026829
:102AF00021F0100142E800134BB1016851E8001FBA
:102B0000026821F0100142E80013002BDAD1416F76
:102B100004460846FDF7E6FC204602214166B0F86F
:102B20005810B0F85A20891A89B2BDE87040FFF7F2
:102B30006DBE00BF01230B62D0F8843043F0010367
:102B4000C0F8843093070AD5BCF1000F07D00223E8
:102B50000B62D0F8843043F00403C0F8843053078C
:102B60000AD5BCF1000F07D004230B62D0F88430E3
:102B700043F00203C0F8843013070AD55CEA0E0361
:102B800007D008230B62D0F8843043F00803C0F864
:102B9000843013050BD516F0806308D04FF4006322
:102BA0000B62D0F8843043F02003C0F88430D0F8B2
:102BB0008430002B3FF4D8AE920608D5BEF1000F4A
:102BC00005D0826E1AB10446904721682046D0F89D
:102BD0008420896802F0280201F04001891807D199
:102BE0000446FFF75FFE0020C4F8840070BD00BFFC
:102BF000016851E8001F026821F4907142E8001357
:102C0000BBB3016851E8001F026821F4907142E8EB
:102C1000001373B3016851E8001F026821F490713A
:102C200042E800132BB3016851E8001F026821F449
:102C3000907142E80013002BDAD11AE0016851E8E4
:102C4000021F026821F0010142E80213DBB10168B2
:102C500051E8021F026821F0010142E8021393B11A
:102C6000016851E8021F026821F0010142E80213E5
:102C70004BB1016851E8021F026821F0010142E8EE
:102C80000213002BDAD1016E012924D1016851E829
:102C9000001F026821F0100142E80013DBB1016857
:102CA00051E8001F026821F0100142E8001393B1BF
:102CB000016851E8001F026821F0100142E800138A
:102CC0004BB1016851E8001F026821F0100142E891
:102CD0000013002BDAD12021C0F8801000210166FA
:102CE000026881669168490640F17E80016851E87A
:102CF000021F026821F0400142E80213DBB10168C3
:102D000051E8021F026821F0400142E8021393B12A
:102D1000016851E8021F026821F0400142E80213F5
:102D20004BB1016851E8021F026821F0400142E8FE
:102D30000213002BDAD1416F002955D043F6D94256
:102D4000C0F60002044608468A63FDF7F1FB00283E
:102D50003FF40AAE606F816BBDE87040084700BF6A
:102D600051067FF501AE16F0400108BF70BD00BFEF
:102D7000016851E8001F026821F0400142E8001399
:102D8000DBB1016851E8001F026821F0400142E810
:102D9000001393B1016851E8001F026821F040015F
:102DA00042E800134BB1016851E8001F026821F0AE
:102DB000400142E80013002BDAD12021C167002135
:102DC000C166BDE8704000F04BBB00BF8C427FF491
:102DD000CBAD126892067FF5C7AD02224266BDE810
:102DE0007040FFF713BD00BFBDE87040FFF75ABD4C
:102DF000891A00BF026852E8002F036822F490721B
:102E000043E80026BEB3026852E8002F036822F4AC
:102E1000907243E8002676B3026852E8002F0368F8
:102E200022F4907243E800262EB3026852E8002F85
:102E3000036822F4907243E80026002EDAD11AE0EB
:102E4000026852E8022F036822F0010243E80226DA
:102E5000DEB1026852E8022F036822F0010243E863
:102E6000022696B1026852E8022F036822F001029E
:102E700043E802264EB1026852E8022F036822F0AE
:102E8000010243E80226002EDAD12022C0F8802079
:102E900000220266826600BF026852E8002F0368C3
:102EA00022F0100243E80026DEB1026852E8002F4B
:102EB000036822F0100243E8002696B1026852E847
:102EC000002F036822F0100243E800264EB102688A
:102ED00052E8002F036822F0100243E80026002E7B
:102EE000DAD1022289B24266BDE87040FFF78EBC9B
:102EF00010B5C0B10446C06F28B9002084F878002E
:102F0000204600F025F82420E0672068616A026806
:102F100022F00102026011B1204600F0B5FD20460A
:102F200001F0C0F810B1012010BD00BF2168486851
:102F300020F490404860886820F02A008860086883
:102F400040F0010220460A60BDE8104000F010BECB
:102F50002DE9F0439BB0044600201A90CDE91800FB
:102F6000CDE9160001A85421FDF70EFA206844F2BD
:102F70000041C4F2000188423CD043F60001C4F293
:102F80000101884240F0A4800120019001A8FEF7D1
:102F90004FF9002818BFFDF79FFA41F25800C4F21C
:102FA0000200816841F480418160806800F48040C3
:102FB0000090009841F24C00C4F20200016841F018
:102FC000010101600068002100F0010000900098FC
:102FD0004FF4C060169002201790CDE9181007201A
:102FE0001A9016A94FF09040FDF7FEFB1BB0BDE80C
:102FF000F08300BF4FF0020801A8CDF80480FEF76F
:1030000017F9002818BFFDF767FA41F25800C4F21B
:103010000200016841F24C0641F400310160006891
:10302000C4F2020600F400300090009830680027D7
:1030300040F001003060306816A900F001000090F7
:1030400000980C20CDE9160807201A904FF0904008
:10305000CDE91878FDF7C8FB40F2D005A6F57E60F3
:10306000C2F200054FF08009C5E900084FF480580E
:103070002846C5E90277C5E90497C5E90677C5F88A
:103080002080FDF7D5FA002818BFFDF725FA6567FF
:10309000AC6240F21815A6F6CC70C2F2000502210F
:1030A000102285E887022846C5E90577C5E9077833
:1030B000FDF7BEFA002818BFFDF70EFA2620002102
:1030C00000222567AC62FEF729F82620FEF714F8E7
:1030D0001BB0BDE8F08300002DE9F04381B0044649
:1030E000D0F88000202809D10E4600294FF00100B9
:1030F00018BF002A06D101B0BDE8F083022001B05C
:10310000BDE8F083002022219946C4F88400C4F869
:10311000801020661546FDF749FCA4F85850A4F825
:103120005A50A1688046E9B1B1F1805F16D0B1F57F
:10313000805F1BD12069FF27014600281CBF314654
:103140000026002808BF40F2FF17A4F85C7035463F
:103150000E46B4F85A0098B92FE000BF206918B1A4
:103160003F2706E0206918B17F2702E0002700E032
:10317000FF270025A4F85C70B4F85A00E8B100BF3E
:103180002046202100224346CDF8009001F02EF980
:10319000D0B92068002E808C00EA070012BF06F824
:1031A000010B25F8020B0026B4F85A000138A4F8E8
:1031B0005A00B4F85A000028E2D100202021C4F8B7
:1031C000801001B0BDE8F08303202021C4F88010F6
:1031D00001B0BDE8F08300007047000070470000B8
:1031E0002DE9F04381B00446C06F202808D10029A2
:1031F0004FF0010018BF002A06D101B0BDE8F083EE
:10320000022001B0BDE8F0830020C4F88400212032
:103210001D460E46E0671746FDF7C8FBA4F8507040
:10322000A4F85270A1688146B1F5805F02D120698F
:10323000002865D037460020B4F852202168002AC3
:1032400066D06A1C27D0002D52D08046C86900067F
:103250000AD4FDF7ABFBA0EB0900A84200F2828084
:1032600021680868F2E700BF17B117F8010B04E006
:1032700038F8020B00276FF35F200885B4F852007E
:103280000138A4F85200B4F852000028DED13FE023
:10329000CA69120609D4CA69120606D4CA69120696
:1032A0005CBFCA695FEA0262F2D51FB117F8012B51
:1032B00005E000BF30F8022B00276FF35F220A857C
:1032C000B4F85220013AA4F85220B4F85220002A4F
:1032D000E1D11DE030F8022B00276FF35F220A8551
:1032E000B4F85220013AA4F85220B4F852207AB12E
:1032F000CA69120634D5002FECD017F8012BEEE77F
:1033000000273046B4F852202168002A7FF499AF94
:10331000C86940061ED41DB3681C14D1C869400694
:1033200026D4C869400623D4C869400620D4C86999
:1033300040064FF00000F1D50DE000BF20680168A5
:10334000C069400614D4FDF731FBA0EB0900A84288
:10335000F4D907E000202021E16701B0BDE8F08347
:10336000FDF724FB03202021E16701B0BDE8F083D5
:1033700000202021E16701B0BDE8F083C36F202B5E
:103380000AD1944600294FF0010218BFBCF1000F8A
:1033900006D11046704700BF02221046704700BF9A
:1033A000B0B500222123C164A0F850C0A0F852C0DB
:1033B000C0F88420C367036F23B343F6E945C0F622
:1033C000000543F6ED7444F29D0E5D630568C0F69A
:1033D0000004C0F6000EC3E90B4E9A6305F1280203
:1033E000044618466346FDF789F90146204649B16F
:1033F0001021C0F884102021C1670122BDE8B0402F
:1034000010467047016840220A6200BF016851E817
:10341000021F026841F0800142E80213DBB101683B
:1034200051E8021F026841F0800142E8021393B1A3
:10343000016851E8021F026841F0800142E802136E
:103440004BB1016851E8021F026841F0800142E877
:103450000213002BDAD10022BDE8B04010467047BD
:10346000006844F20041C4F20001884218BF70476E
:1034700040F21030C2F200000121017070470000DC
:1034800070470000FEE7000070B50446006815466E
:103490008369DA0602D40021002266E00E4610217C
:1034A000C161816989065CD4711C50D02EBBFDF7C7
:1034B0007DFA2068426894F8421083691B040BD59A
:1034C00012F4804208D1202906D0416841F480419D
:1034D0004160FDF76BFA054620688169890605D4CD
:1034E000FDF764FA401B1A28F6D328E081698906A3
:1034F000DDD536E08169890633D4FDF757FA411BE3
:103500002068B142F6D9426894F8421083691B04DE
:103510000CD512F4804209D1202907D0416841F42A
:1035200080414160FDF742FA054600BF206881698D
:103530008906DFD4FDF73AFA401B1A28F6D3206833
:1035400001228169242110E08169890609D48169F9
:10355000890606D4816989065CBF81695FEA816159
:10356000F2D52021C161012204218369DE0505D540
:103570004FF4807241F00101C26101225E0505D461
:103580009B050AD472B9002070BD00BF41F008014C
:103590004FF480629B05C26104D541F002014FF4F3
:1035A0000072C2618269920744BF0022826282690E
:1035B000D20703D1826942F00102826142684EF66D
:1035C0000003CFF600631A404260606C08436064F9
:1035D000202084F84100002084F8420084F8400054
:1035E000012070BD2DE9F041044600688069084063
:1035F000401AB0FA80F04009824221D1DDF81880EB
:1036000015460E461F46581C27D0CFBB204600212A
:103610004246FFF739FF002853D1FDF7C7F920686C
:1036200081693140891BB1FA81F149098D423CD051
:1036300080693040801BB0FA80F040098542E5D0B7
:103640000020BDE8F08100BF206880693040801B09
:10365000B0FA80F040098542F2D120464FF0FF31A8
:103660004246FFF711FF0028EED00120BDE8F081AF
:1036700080693040801BB0FA80F040098542DFD17C
:10368000204639464246FFF7FFFED0B9FDF78EF9D6
:10369000A0EB08012068B942EAD981693140891B51
:1036A000B1FA81F149098D42E2D1606C40F020000D
:1036B0006064202084F84100002084F8420084F8EF
:1036C00040000120BDE8F08170B5044600688069C3
:1036D000800635D415460E4619B928E08069800663
:1036E0002ED4204631462A46FFF7CEFE30BBFDF7EA
:1036F0005DF9411B2068B142F0D981698906EDD49A
:10370000606C40F020006064202084F841000020BC
:1037100084F8420084F84000012070BDFDF746F9AE
:10372000206881698906EBD58069800608D4204627
:1037300000212A46FFF7A8FE0028EFD0012070BD27
:10374000002070BD70B5044600688069800714D4FD
:1037500015460E46481C17D01EBB00BF2046002150
:103760002A46FFF791FEB8BBFDF720F92068816972
:10377000890725D580698007F0D5002070BD00BF7E
:10378000206880698007F8D420464FF0FF312A4630
:10379000FFF77AFE0028F3D0012070BD8069800712
:1037A000EBD4204631462A46FFF76EFEA0B9FDF75E
:1037B000FDF8411B2068B142F0D981698907EDD439
:1037C000606C40F020006064202084F841000020FC
:1037D00084F8420084F84000012070BDFEE700003C
:1037E000FEE7000070470000F0B581B041F200052F
:1037F000C4F20205EA68920714D0EA68036802F08E
:1038000003029A424FF0010208D13BB1EA684368D3
:10381000C2F3021201329A422AD00122104601B0AC
:10382000F0BD00BF0268032A10D0022A06D0012A88
:1038300007D12B689B0710D403E000BF2B685B0502
:103840000BD40122104601B0F0BD00BF2B689B03D2
:103850005CBF2B685FEA4333F3D5EB6847686FF0D2
:103860000F0623F0730306EB07173B431A43EA6086
:10387000064628680F4620F080602860FDF796F81D
:10388000044600BF2868000108D5FDF78FF8001B2B
:103890000228F7D90322104601B0F0BD2969B068AB
:1038A0003246012F4FEA002008D0BFB948F2FF038B
:1038B000D268C0F2FF731940D2061BE048F2FF0342
:1038C000CFF6FF1303F1B463194012690023CFF65A
:1038D000E07303EA0252A2F500120BE048F2FF0384
:1038E000CFF6FF13526919404FF07E4303EA02629C
:1038F00002F17E42084310432861286840F080604E
:103900002860FDF753F804462868000108D4FDF745
:103910004DF8001B0228F7D90322104601B0F0BD74
:10392000B0692969002208432861104601B0F0BD42
:103930007047000080B584B022EAE27E40F2DC5C91
:1039400045F25552E645A8BFE646ADF806208DF88B
:10395000081040F207127144ADF809204FEA1E2208
:1039600001EB1E218DF80C201A0A19448DF80E2047
:1039700001EB13216FF00802511A8DF80D308DF80C
:103980000F100DF106010A2240F2DC538DF80BE016
:10399000FFF726FCB0FA80F0400904B080BD0000BB
:1039A00070B584B0064645F25550ADF80A0041F6B0
:1039B0000340ADF80D006FF01F00401A14460D468D
:1039C0008DF80C108DF80F000DF10A01304606221B
:1039D00040F2DC53FFF704FC20B10726304604B068
:1039E00070BD00BF0DF102013046082240F2DC53E9
:1039F0000826FFF771FB0028F0D19DF8020002268F
:103A00005528EBD19DF803005528E7D19DF8040017
:103A1000A84219D19DF80500052819D19DF8060086
:103A20001C2819D19DF807009DF808102B180B448D
:103A30009DF809202133DBB25A40FF2A10D0062618
:103A4000304604B070BD00BF0326304604B070BDE0
:103A50000426304604B070BD0526304604B070BD63
:103A600040EA012000B201262060304604B070BD5B
:103A7000FDF7E2BA4EF68850CEF20000016841F43C
:103A80007001016070470000416A0A070CD4CA0740
:103A900015D18A071ED44A0727D4CA0630D48A060D
:103AA00039D44A0642D457E00268D0F834C053688B
:103AB00023F4004343EA0C035360CA07E9D00268C9
:103AC000D0F828C0536823F4003343EA0C03536052
:103AD0008A07E0D50268D0F82CC0536823F48033FD
:103AE00043EA0C0353604A07D7D50268D0F830C0C8
:103AF000536823F4802343EA0C035360CA06CED5EF
:103B00000268D0F838C0936823F4805343EA0C036A
:103B100093608A06C5D50268D0F83CC0936823F448
:103B2000005343EA0C0393604A0615D5D0F800C051
:103B3000036CDCF80420B3F5801F22F4801242EA03
:103B40000302CCF8042007D1DCF80420436C22F4F3
:103B5000C0021A43CCF80420090658BF7047016818
:103B6000806C4A6822F400221043486070470000CD
:103B7000B0B582B004460020C4F88400FCF716FFFC
:103B8000216805460A68120737D56FF07E4C20463B
:103B90004FF4001100222B46CDF800C000F026FCA7
:103BA00050B300BF206850E8000F216820F080006B
:103BB00041E80002DAB1206850E8000F216820F0E7
:103BC000800041E8000292B1206850E8000F2168AF
:103BD00020F0800041E800024AB1206850E8000F60
:103BE000216820F0800041E80002002ADAD1032099
:103BF00020217C226AE000BF2168086840075DD56B
:103C00006FF07E4C20464FF4800100222B46CDF809
:103C100000C000F0EBFB002850D000BF206850E847
:103C2000000F216820F4907041E80002BAB32068C8
:103C300050E8000F216820F4907041E8000272B350
:103C4000206850E8000F216820F4907041E80002DD
:103C50002AB3206850E8000F216820F4907041E8F2
:103C60000002002ADAD11AE0206850E8020F216829
:103C700020F0010041E80202DAB1206850E8020FAA
:103C8000216820F0010041E8020292B1206850E86A
:103C9000020F216820F0010041E802024AB12068C9
:103CA00050E8020F216820F0010041E80202002ADA
:103CB000DAD103202021802208E000BF2020E06725
:103CC000C4F880000021642200202166A150002158
:103CD00084F8781002B0B0BD806A0021A0F85A10B4
:103CE000A0F85210FEF7DEBD806A0268C36FD0F8FC
:103CF00080C0916809062DD5212B2BD10021A0F879
:103D0000521000BF016851E8001F026821F0C00195
:103D100042E80013DBB1016851E8001F026821F09E
:103D2000C00142E8001393B1016851E8001F026826
:103D300021F0C00142E800134BB1016851E8001FB7
:103D4000026821F0C00142E80013002BDAD12021E3
:103D5000C16702689168490640F17F80BCF1220F7B
:103D60007BD10021A0F85A10016851E8001F0268B9
:103D700021F4907142E80013BBB3016851E8001FC1
:103D8000026821F4907142E8001373B3016851E8AE
:103D9000001F026821F4907142E800132BB3016800
:103DA00051E8001F026821F4907142E80013002BD3
:103DB000DAD11AE0016851E8021F026821F001011E
:103DC00042E80213DBB1016851E8021F026821F0EA
:103DD000010142E8021393B1016851E8021F026831
:103DE00021F0010142E802134BB1016851E8021FC2
:103DF000026821F0010142E80213002BDAD1016EC2
:103E0000012924D1016851E8001F026821F0100146
:103E100042E80013DBB1016851E8001F026821F09D
:103E2000100142E8001393B1016851E8001F0268D5
:103E300021F0100142E800134BB1016851E8001F66
:103E4000026821F0100142E80013002BDAD1202192
:103E5000C0F88010002101668166D0F8841041F01E
:103E60001001C0F88410FEF71DBD00000168806AD3
:103E70000968890600F1A1800021A0F85A1000BF4E
:103E8000016851E8001F026821F4807142E80013C4
:103E9000E3B1016851E8001F026821F4807142E833
:103EA00000139BB1016851E8001F026821F4807182
:103EB00042E8001353B1016851E8001F026821F481
:103EC000807142E80013002BDAD100BF016851E88D
:103ED000021F026821F0010142E80213BBB301682E
:103EE00051E8021F026821F0010142E8021373B396
:103EF000016851E8021F026821F0010142E8021343
:103F00002BB3016851E8021F026821F0010142E869
:103F10000213002BDAD11AE0016851E8021F02688F
:103F200021F0400142E80213DBB1016851E8021FB1
:103F3000026821F0400142E8021393B1016851E8A0
:103F4000021F026821F0400142E802134BB10168F0
:103F500051E8021F026821F0400142E80213002BE1
:103F6000DAD12021C0F88010016E012925D100BFCF
:103F7000016851E8001F026821F0100142E80013B7
:103F8000DBB1016851E8001F026821F0100142E82E
:103F9000001393B1016851E8001F026821F010017D
:103FA00042E800134BB1016851E8001F026821F09C
:103FB000100142E80013002BDAD100214166016EA6
:103FC000012918BFFFF708B9B0F85810FEF71EBC5A
:103FD000806A01214166016E012918BFFFF7FEB812
:103FE000B0F858104908FEF711BC00000168806A5B
:103FF0000968890648BFFFF733BA0021A0F85210BC
:10400000016851E8021F026821F0800142E80213B2
:1040100083B3016851E8021F026821F0800142E881
:1040200002133BB3016851E8021F026821F08001CE
:1040300042E80213F3B1016851E8021F026821F05F
:10404000800142E80213002BDAD113E0016851E845
:10405000001F026841F0400142E80013002B08BF36
:104060007047016851E8001F026841F0400142E8D2
:10407000001393B1016851E8001F026841F040014C
:1040800042E800134BB1016851E8001F026841F09B
:10409000400142E80013002BD8D17047806AFFF737
:1040A000EFB90000B0B5054605F108041ECC006864
:1040B000194341EA0403D5F81CE0046846F6F311FD
:1040C000CEF6FF712140194341EA0E0101604168BB
:1040D00048F2000C21F4405111434160AA69C4F236
:1040E000000C60451CBF296A0A43816821F43061D5
:1040F000114344F20042C4F200029042816017D0A2
:1041000060450DD043F60001C4F2010188424BD155
:1041100041F28801C4F202010B685EA212E000BF06
:1041200041F28801C4F2020109688B0A06E000BF6F
:1041300041F28801C4F2020109688B0847F2B81203
:10414000C0F6000203F0030152F82130604542F24C
:104150000040C0F2F4002ED0BEF5004F12D1082B63
:104160004FF0010100F29180DFE803F00656688FFE
:104170005E8F8F8F660000BFFDF7BCFA002840F00D
:104180005D807EE0082B4FF0010100F27E80DFE8C9
:1041900003F005476B7C4F7C7C7C6900FDF7AAFA35
:1041A000002861D16DE000BF1023604542F200405D
:1041B000C0F2F400D0D1082B4FF0010165D8DFE840
:1041C00003F005640F64096464640D00FDF792FA5E
:1041D00030B956E0FDF7BAFA10B952E04FF400409A
:1041E0006A6802EB420188424FF001014DD313038C
:1041F00098424AD8010E000210EB520041F1000132
:104200000023FCF749F84FF60052A0F54071C0F2C8
:104210000F02914233D337E0FDF782FA70B930E0F4
:10422000FDF77EFA00BB2CE0FDF790FA30B928E0EC
:10423000FDF78CFAC0B924E04FF4004069684A08E1
:1042400002EB4000B0FBF1F04FF6EF72A0F110016D
:10425000914219D84FF6F0710140C0F34200084472
:104260000DE000BF4FF4004069684FF6EF7200EBBD
:104270005100B0FBF1F0A0F11001914204D829687F
:10428000C860002101E000BF012100220846AA66A3
:10429000EA66B0BD0100000004000000020000005A
:1042A00008000000B0B513460A46416500210446E7
:1042B000A0F85830C0F884102220C4F88000606F45
:1042C000F0B143F6E945C0F600054563256843F6BD
:1042D0006D6C43F6D17EC0F6000CC0F6000E816313
:1042E00005F12401C0E90BCEFCF708FA40B110201B
:1042F000C4F884002020C4F880000120B0BD00BFB5
:10430000206928B3206850E8000F216840F48070CD
:1043100041E80002E2B1206850E8000F216840F453
:10432000807041E800029AB1206850E8000F2168CF
:1043300040F4807041E8000252B1206850E8000F5C
:10434000216840F4807041E80002002ADAD100BF01
:10435000206850E8020F216840F0010041E80202A5
:10436000BAB3206850E8020F216840F0010041E82C
:10437000020272B3206850E8020F216840F0010089
:1043800041E802022AB3206850E8020F216840F099
:10439000010041E80202002ADAD11AE0206850E860
:1043A000020F216840F0400041E80202DAB12068C3
:1043B00050E8020F216840F0400041E8020292B14B
:1043C000206850E8020F216840F0400041E80202F6
:1043D0004AB1206850E8020F216840F0400041E8EF
:1043E0000202002ADAD10020B0BD00002DE9F04120
:1043F000804600681546C2690E461140891BB1FA15
:1044000081F149098D4223D1069C2CB3611C29D12D
:10441000C1693140891BB1FA81F149098D4217D137
:10442000C1693140891BB1FA81F149098D420FD12F
:10443000C1693140891BB1FA81F149098D4207D127
:10444000C1693140891BB1FA81F149098D42DFD040
:104450000020BDE8F08100BFFCF7A8FA0320BDE80A
:10446000F08100BF1F4607E0C0693040801BB0FAF2
:1044700080F040098542EBD1FCF798FAC01BA042BE
:1044800000F2B080D8F8000001684907ECD5402E52
:10449000EAD0802EE8D0C169090700F1A780C16980
:1044A0000905E1D54FF400610162D8F8000050E839
:1044B000000FD8F8001020F4907041E80002002AA4
:1044C00043D0D8F8000050E8000FD8F8001020F4CE
:1044D000907041E80002C2B3D8F8000050E8000F25
:1044E000D8F8001020F4907041E800026AB3D8F8C0
:1044F000000050E8000FD8F8001020F4907041E858
:104500000002002AD1D120E0D8F8000050E8020FC4
:10451000D8F8001020F0010041E802020AB3D8F8F0
:10452000000050E8020FD8F8001020F0010041E828
:104530000202B2B1D8F8000050E8020FD8F800101B
:1045400020F0010041E802025AB1D8F8000050E81A
:10455000020FD8F8001020F0010041E80202002A02
:10456000D2D1D8F8600001282CD1D8F8000050E84A
:10457000000FD8F8001020F0100041E800020AB344
:10458000D8F8000050E8000FD8F8001020F0100014
:1045900041E80002B2B1D8F8000050E8000FD8F8A6
:1045A000001020F0100041E800025AB1D8F80000D5
:1045B00050E8000FD8F8001020F0100041E8000289
:1045C000002AD2D120200021C8F88000C8F860104D
:1045D000C8F86810C8F88400032088F87810BDE88F
:1045E000F08100BF0320BDE8F08100BF0821016217
:1045F000D8F8000050E8000FD8F8001020F49070B0
:1046000041E80002002A44D0D8F8000050E8000F2A
:10461000D8F8001020F4907041E80002CAB3D8F82E
:10462000000050E8000FD8F8001020F4907041E826
:10463000000272B3D8F8000050E8000FD8F800105C
:1046400020F4907041E80002002AD1D121E000BF9F
:10465000D8F8000050E8020FD8F8001020F0010050
:1046600041E802020AB3D8F8000050E8020FD8F877
:10467000001020F0010041E80202B2B1D8F80000B9
:1046800050E8020FD8F8001020F0010041E80202C3
:104690005AB1D8F8000050E8020FD8F8001020F006
:1046A000010041E80202002AD2D1D8F860000128B6
:1046B0002CD1D8F8000050E8000FD8F8001020F0F6
:1046C000100041E800020AB3D8F8000050E8000FDB
:1046D000D8F8001020F0100041E80002B2B1D8F87C
:1046E000000050E8000FD8F8001020F0100041E85A
:1046F00000025AB1D8F8000050E8000FD8F80010B6
:1047000020F0100041E80002002AD2D12020C8F891
:10471000800000200821C8F86000C8F86800C8F8C8
:10472000841088F878000120BDE8F08140F28820EC
:10473000C2F20000FEF7DEB8FEE70000862101228B
:1047400000F028BA10B582B00C460DF10602962191
:1047500000F0DEF9BDF80610218002B010BD0000A7
:1047600010B582B00C46FF2121700DF1070289219E
:1047700000F0B2F99DF8071001F01F01172905D8C4
:1047800047F2C812C0F60002515C217002B010BDA1
:104790002DE9F04F81B047F25C17834600254FF0BA
:1047A000FF36C0F6000700BFB819427806F12E00A8
:1047B00081B2584600F0EEF901365A2E45EA00055E
:1047C000F2D158468721402200F0E4F905436426DF
:1047D0000DF103080DF102094FF0010A584630218E
:1047E000424600F079F99DF80340074658463121CA
:1047F0004A4600F071F99DF80210074381EA14144B
:1048000058464FF00A0145EA070518BF012700F096
:10481000BDF92AEA0400013E384301284FEA064068
:1048200001D10028DAD1F8B158468621012200F0E2
:10483000B1F9804658468721002200F0ABF90646C0
:1048400058460821092200F0A5F9074658460B21D1
:10485000002200F09FF948EA060139430843284343
:1048600040B201B000F005B8F62040B201B000F04F
:1048700000B830BCBDE8C08F2DE9F04782B00E46CD
:104880000DF106025E21044600F042F9BDF8061063
:10489000B1F5D77F10DBB1F5387F19DD40F28E42DC
:1048A00091422DDC40F2E122914235D040F2E132DA
:1048B000914217D048E000BF5F2917DC1D2933D093
:1048C0001E2901D051293FD1142500283CD12DE0CB
:1048D000B1F5D77F24D0B1F5E67F1DD040F2D922C3
:1048E000914231D1C82578BB20E000BF602903D0B8
:1048F000AD2915D0D62927D1212528BB16E000BF28
:1049000040F28F42914203D040F2915291421BD12A
:104910004FF4FA75C0B909E06425A8B906E000BFF4
:10492000322588B902E000BF0F2568B9012E0FD0EB
:10493000022E09D140F60E6840F60D794FF0B80A04
:104940000D270F260A220CE0012002B0BDE8F087F7
:1049500040F2066840F205794FF0380A052707262D
:10496000142220464B2100F015F9204660213246E2
:1049700000F010F9204663213A4600F00BF920467A
:104980006921524600F006F9204678214A4600F097
:104990003FF920467A21424600F03AF910B102B0C0
:1049A000BDE8F0872046294600F004F802B0BDE8D3
:1049B000F087000070B582B00E460DF107024B2162
:1049C000044600F089F89DF8071005460A290FD122
:1049D000632E4FF001002FDC142E00F04580212EB5
:1049E00000F04C80322E40F07180C626AD2263E08C
:1049F000632E4FF001002BDCA6F10F01232900F2FA
:104A0000658027261D22DFE801F05761616161138F
:104A100061616161616161616161616143616161A4
:104A2000616161616161616161616161614700BF93
:104A30006E26512240E000BF642E19D0C82E21D02E
:104A4000B6F5FA7F42D140F2A44640F28F4233E0FD
:104A5000642E27D0C82E2BD0B6F5FA7F36D140F27F
:104A6000C15640F2915227E022261E2224E000BFC8
:104A70004FF4F5764FF4E6721EE000BF6E2660221A
:104A80001AE000BF4FF43E7640F2D92214E000BF96
:104A90006E26D62210E000BF4FF4F4764FF4D772A2
:104AA0000AE000BF4FF4627640F2E12204E000BF6A
:104AB00040F2964640F2E13220465E2100F0A8F82E
:104AC00020466121324600F0A3F8284602B070BDAE
:104AD0008721402200F05EB880B584B094460A4633
:104AE00040F2CC01C2F20001096803464FF0640EA7
:104AF0000120CDE9010E084619460223CDF800C079
:104B0000FBF7FCFF002818BF6FF00C0004B080BD5D
:104B100010B584B014460A4640F2CC01C2F200013E
:104B2000096803464FF0640C0220CDE9010C0846E9
:104B3000194602230094FBF7E1FF18B1F32040B2BD
:104B400004B010BD208800BA000C2080002040B2C4
:104B500004B010BD80B584B08E4640F2CC01C2F2E4
:104B6000000109689446024664209BB2CDE90130F9
:104B70000846114672460223CDF800C0FBF7BEFF7F
:104B8000002818BF6FF00C0004B080BD0846FBF78A
:104B900009BE000080B584B00B46014640F2CC004F
:104BA000C2F2000000688DF80F204FF0010E0DF1E9
:104BB0000F024FF0640CCDE9002E1A460223CDF807
:104BC00008C0FCF7C3F8002818BF6FF00C0004B051
:104BD00080BD000080B584B00B46014640F2CC0099
:104BE00012BAC2F20000006803924FF0040E03AA4A
:104BF0004FF0640CCDE9002E1A460223CDF808C010
:104C0000FCF7A4F8002818BF6FF00C0004B080BDBA
:104C100080B584B00B46014640F2CC0052BAC2F2D5
:104C200000000068ADF80E204FF0020E0DF10E02EC
:104C30004FF0640CCDE9002E1A460223CDF808C0CF
:104C4000FCF784F8002818BF6FF00C0004B080BD9A
:104C50002DE9F04F8DB040F200404FF00008C4F64F
:104C6000000010210122CDF82880FBF799FEFBF708
:104C70009DFE04460BAD0027002600BFF80717D1A4
:104C80000220FBF78FFD5220E5212A468DF82C806B
:104C9000FFF722FF9DF82C700643FBF787FE001BF1
:104CA0006428EBD9EC26F0B20DB000F0F5B800BFE7
:104CB0003006F8D16420FBF775FD0AAA522040F2B5
:104CC0000F110423FFF746FF9DF828000126EA286C
:104CD000E9D19DF82900CC28E5D19DF82A001028BB
:104CE000E1D15220FFF754FD099052201E21842269
:104CF000FFF78EFF08905220202100220024FFF7AA
:104D000087FF0790522022210022FFF781FF0690A3
:104D1000522018210022FFF77BFF059052201A2114
:104D20000022FFF775FF0490522016210022FFF7A2
:104D30006FFF039052200221FFF79EFD02900DF1BC
:104D40002D0252204B21FFF7C7FE9DF82D500190F8
:104D500040F2E13252205E210A2D08BF40F2D922F2
:104D6000FFF756FF40F29642522061210A2D08BFFC
:104D70004FF43E72FFF74CFF0DF12E025220DE2160
:104D8000FFF7C6FEBDF82E1081466FF39F21D2209B
:104D90004843ADF82E1002F01EF89FED3D0B53EC8A
:104DA000102B02F02BF801F0E9FF024652206C2193
:104DB000FFF710FF0DF13102522046218DF83140EE
:104DC000FFF78AFE9DF83100462100F09002522044
:104DD0008DF83120FFF7DEFE8246522072214FF41B
:104DE0007A62FFF715FF8346522074214FF4FA626E
:104DF000FFF70EFF04460DF1320252203021FFF77B
:104E00006BFE9DF83210054601F0EF008DF8320080
:104E100041F0100252203021FFF7BCFE06460DF192
:104E2000330252204FF49F71FFF756FE0746C7200A
:104E30008DF8330052207F21C722FFF7ABFE80465A
:104E400052208021FF22FFF7A5FEDDE90821114352
:104E5000079A1143069A1143059A1143049A114384
:104E6000039A1143029A1143019A114341EA09013D
:104E700041EA0A0141EA0B01214329433143394305
:104E800041EA080141EA0006F0B20DB000F004B8B2
:104E9000333333333333F13F30BCBDE8C08F0000D0
:104EA0004EF60C50BFF34F8FCEF200000168042283
:104EB00001F4E061C0F2FA5211430160BFF34F8F79
:104EC00000BF00BF00BF00BFFAE700000000000005
:104ED0002DE9F04F81B02DED0E8B82B0B0EE40BACF
:104EE000B0EE60AA1A9CB0EE600AF0EE4B0A1D46C6
:104EF00016460F468046B0EE419A01F02DFAB0EE0C
:104F0000408A84ED000A01F07DFBB0EE40CAB0EEAD
:104F1000480A01F01FFC2AEE000A2BEE0C1A31EEB3
:104F2000000ABBEE061A30EE010A9FEDC71A9FED8C
:104F3000C72A39EE01DA30EE02EA2DEE0D0A2EEE26
:104F40000E1A31EE000A9FEDC21A9FEDC22A30EE12
:104F5000010A80EE02AAB7EE000ABFEE001AB4EE14
:104F600040AAF1EE10FAC8BFB0EE40AAB4EE41AAD2
:104F7000F1EE10FAB8BFB0EE41AA2AEE0A1A30EEEE
:104F8000410AB1EEC0BAF0EE4A0AB0EE4B0AB1EEF9
:104F90004BCA01F0E1F9B0EE409A84ED030AB0EE9D
:104FA0004C0AF0EE4A0A01F0D7F99FEDAB1A9FEDDB
:104FB000AB2A9FEDAB5A2AEE013A33EE022A2DEED0
:104FC000013A2BEE055A23EE0B3A2EEE024A2BEE57
:104FD000055A22EE027A34EE036A37EE055A34EEB1
:104FE000433A2EEE011A83EE05CA2DEE022A21EE77
:104FF0000B3A32EE431A81EE051AC6EE050A32EE7E
:10500000032AB0EE40AA84ED040A82EE05DAB0EE7F
:10501000410A01F0A1F9B0EE40BA84ED010AB0EE08
:105020004D0AF0EE4C0A01F097F939EE0B1AB5EE85
:1050300040BAB1EE413AF1EE10FA4FF00000B5EE91
:10504000409A4FF0000284ED020A84ED053AC8BF91
:105050000120F1EE10FAB8BF0122B5EE400A10406F
:10506000F1EE10FA4FF00002B5EE40AA3AEE002A37
:105070004FF00001C8BF0122F1EE10FAB1EE424A32
:10508000B8BF0121002884ED064A08BF11EA0201D9
:1050900000F0CC809FED733A00289FED734A18BF53
:1050A000B0EE4B0A002818BFB0EE49AA18BFB0EE08
:1050B000412A28EE031A81EE041A20EE030A80EE3C
:1050C00004BA2AEE030A80EE049A9FED680A22EEE3
:1050D000000A80EE048A11EE100A01F08DFF9FEDA8
:1050E000580B019554EC105B2A46234601F0BAFC9C
:1050F00001F014FE009600F5F0761BEE100A01F0A8
:105100007BFF2A46234601F0ADFC01F007FEC0F507
:105110007A7A19EE100A01F06FFF2A46234601F051
:10512000A1FC01F0FBFDC0F1000B18EE100A01F02C
:1051300063FF2A46234601F095FC01F0EFFD00F5E0
:10514000FA79B0B2A0EB080000EE100A1FFA8AF05C
:10515000C01B009901EE100A1FFA8BF0401A01994A
:1051600002EE100A1FFA89F0401AB8EEC00AB8EE33
:10517000C11A03EE100AB0EEC00AB0EEC11AB8EEC2
:10518000C22AB8EEC33AB0EEC22AB0EEC33AB4EEC9
:10519000410AF1EE10FAC8BFB0EE401AB4EE432A4D
:1051A0009FED330AF1EE10FAC8BFB0EE423AB4EE0A
:1051B000431AF1EE10FAC8BFB0EE413A83EE000A8E
:1051C00032B240F20026C2F200063046012101252B
:1051D000BDEEC00A10EE104AB4F5E16F98BF4FF46F
:1051E000E1642346FEF7A6FB0520FBF7DBFA0FFA86
:1051F0008BF2304603212346FEF79CFB0520FBF78C
:10520000D1FA0FFA89F2304604212346FEF792FBC9
:105210000520FBF7C7FA0FFA8AF23046022123462F
:10522000FEF788FB2046FBF7BDFA00E00225284682
:1052300002B000F01FB801B000F022B800BF00BFFC
:10524000B81E85EB51B8CE3F000074C20000C8C242
:1052500000DD6AC70014664700003E4300001B43A0
:1052600000040D4700003443DB0F4940000034C305
:10527000EC51383EBDEC088BBDEC06CBFFF7DBBF35
:1052800030BCBDE8C08F00009EB0FBF7E3FE02A873
:1052900004302421FBF778F84FF40070FBF77AFF15
:1052A00020B1EFF3108072B6FEE700BF0A20029033
:1052B0004FF48070059010200690012007900E900A
:1052C000092002210F900720CDE91001062012903D
:1052D00002A8CDE90C11FCF79DFA28B1EFF310807C
:1052E00072B600BFFEE700BF0F2013904FF480603E
:1052F0004FF0030A0027CDE9160013A80121CDF8CD
:1053000050A015974FF00109FCF7D4F820B1EFF346
:10531000108072B6FEE700BF41F24C060697CDE959
:105320000477CDE90277C4F20206306840F2004407
:1053300040F0040030603068C4F6000400F004005F
:1053400013901398306844F2004840F00100306038
:105350003068102100F0010013901398306800228B
:1053600040F0020030603068C4F2000800F0020033
:105370001390139830684FF0100B40F080003060AD
:10538000306800F08000139013982046FBF708FB6C
:105390004FF4404002ADCDE9020A04F58060294691
:1053A0000497FBF721FA49F6F300CDE9020A4FF022
:1053B000904029460497FBF717FA0B20CDE9020A23
:1053C000204629460497FBF70FFA20462946CDE9E7
:1053D00002B9CDE90477FBF707FA202002904FF4D9
:1053E0000410CDE9030920462946FBF7FDF9082002
:1053F000CDE9020A04F5C05029460497FBF7F4F9F9
:10540000172000210022FBF789FE1720FBF774FE0E
:1054100056F8040C002140F0010046F8040C56F840
:10542000040C002200F00100029002981020FBF70B
:1054300075FE1020FBF760FE112000210022FBF713
:105440006DFE1120FBF758FE40F2601008F5805108
:10545000C2F2000040F21042C0F2200280E8860250
:10546000C0E90477C0E906770762FBF7EFFA28B1D5
:10547000EFF3108072B600BFFEE700BF40F260108D
:10548000C2F200000021FBF797FA28B1EFF3108079
:1054900072B600BFFEE700BF40F26010C2F200002B
:1054A00000210024FBF7AEFA20B1EFF3108072B6B2
:1054B000FEE700BF40F2B41008F56841C2F20000F8
:1054C00044F62063172280E81600C0E90334C0E9DF
:1054D0000544FDF73BF828B1EFF3108072B600BF2A
:1054E000FEE700BF40F2B4100024C2F200001AA987
:1054F000CDE91A441C94FCF7E9FD28B1EFF31080C4
:1055000072B600BFFEE700BF6020CDE9130440F291
:10551000B410C2F2000013A90022CDE91544CDE970
:1055200017441994FCF738FE20B1EFF3108072B6DF
:10553000FEE700BF00264FF40050CDE907064FF00C
:105540000070CDE90A0640F2B41002ACC2F20000CD
:1055500021460696CDE90466CDE9026609960C96C9
:10556000FCF768FD20B1EFF3108072B6FEE700BFD4
:1055700040F2B419C2F200094846FCF7DDFD40F2E2
:10558000002008F57441C2F200000C274FF4E13509
:1055900080E86200C0E90366C0E90576C0E90766F5
:1055A0004662FDF7A5FC18B1EFF3108072B6FEE776
:1055B00040F28820C2F200000021C0E90085C0E965
:1055C0000211C0E90417C0E90611C0E90811FDF78E
:1055D0008FFC18B1EFF3108072B6FEE74846002149
:1055E0000027FDF743F8D9F800004FF4FA7545633A
:1055F0004FF49670FBF7D6F8D9F8000040F22C6112
:1056000041634FF49670FBF7CDF8D9F8000045637D
:105610004FF49670FBF7C6F840F27008C2F200082B
:1056200040F2882008F11601C2F200000222FDF7C4
:10563000A1F840F2D000C2F200000068016821F039
:105640000401016040F26010C2F2000000F06AFE46
:10565000FFF7FEFA5220FFF73BFA00F021FB98F823
:10566000040008B1FFF71CFC40F2000A40F2882653
:10567000DFEDA6BADFEDA6CADFEDA6DADFEDA69A6A
:10568000DFEDA6EA04F1010BC2F2000AC2F2000645
:10569000342503E098F804000028E3D19AF80000CC
:1056A00030380828F6D8DFE800F02725250525251D
:1056B0004D256B00B8F81200062200EE100AB8EE75
:1056C000400AB1208DF8080010EE100A00EB1021FE
:1056D00001EB1041CBF8000001EB1060C0F14E006F
:1056E0008DF80D0030462146FDF748FE8AF800503F
:1056F000D0E700BFCEE700BF98F80800012811D01E
:10570000002853D1D9F800004FF4FA71416300F03A
:105710003FFD8AF80100FBF749F9C8F8380001207D
:1057200088F80800FBF742F9D8F83810401AB0F5AD
:10573000965F39D3FBF73AF9C8F83800022088F8A9
:10574000080036E098F80700022841D0012857D118
:10575000FBF72CF9D8F83410401A40F6FC018842C7
:10576000FFF498AFD9F800004FF4FA714163FBF7EA
:105770001DF9C8F83400022088F807008AE700BF46
:1057800098F80900DFE800F00246D0E6FBF70EF9D2
:10579000C8F83C000120A8F81470A8F8057088F833
:1057A000007088F8090075E798F8080002287FF46F
:1057B00071AFFBF7FBF8D8F83810401AC828FFF48F
:1057C00069AF38208AF8000088F8087062E700BFE7
:1057D000FBF7ECF8D8F83410401A1428FFF45AAF4D
:1057E00040F2CC40ADF80800304621460222FDF7D9
:1057F000C5FD00F055FA8AF8005088F8077049E7AF
:1058000000F012FBFBF7D2F8C8F83400012088F84A
:1058100007003FE798F80000002840F0B98040F208
:105820000020C2F2000001212246FEF7B9F801284B
:1058300040F0A68002989FED3A1AA0F5F07100EEB4
:10584000101AB8EEC00A20EE010AA8F80A000320D8
:1058500088ED060AFAF7A6FF40F20020C2F2000027
:10586000022113AAFEF79CF8012840F089801398C2
:105870009FED2C1AB0F57A7100EE101AB8EEC00A3E
:1058800020EE010AA8BFB0EE6B0AA8F80C000320B6
:1058900088ED070AFAF786FF40F20020C2F2000006
:1058A00003211AAAFEF77CF8012869D11A989FED06
:1058B000F01A00EE100AB8EE400A0128A8F80E000F
:1058C00020EE010A4FF00300B8BFB0EE6B0A88ED7E
:1058D000080AFAF767FF40F20020C2F20000042134
:1058E0001DAAFEF75DF801284AD11D989FEDDF1A29
:1058F000A0F5FA7100EE101AB8EEC00A20EE010A07
:10590000A8F81000012088ED090A3AE00000000024
:10591000DB0F494000003443337354430000BE435F
:105920008FC2753E8FC275BEFBF740F8D8F83C10A9
:10593000401A1428FFF4AEAED9F8000040F22C61F2
:105940004163FBF733F8C8F83C00032088F80900EE
:10595000A0E600BFFBF72AF8D8F83C10401AFA2856
:10596000FFF498AE00F02AFB4FF4E670ADF80800A3
:10597000304621460222FDF701FD8AF800506EE113
:10598000002098F8051088F80000013188F805100B
:10599000012840F03C8198F80300012840F037814D
:1059A00098F8060088F80370411CB8F8120088F8CF
:1059B0000610A0F10F0189B2C82900F2288198EDE4
:1059C000060A98ED071A20EE2C0A80EE2D9A98ED23
:1059D000082A98ED093A21EE2C0A80EE2D8A22EE53
:1059E0002C0A80EE2DBA23EE2C0A80EE2DCA00EE92
:1059F000100AB8EE40EAB0EE490A00F003FE38EEB5
:105A00000BDA7DEE0C8AB0EE40AAB0EE680A00F028
:105A1000F9FDB0EE40BAB0EE4D0A00F0F3FD9FED97
:105A2000951A20EE010A9FED941A2BEE011A31EE21
:105A300000BAB0EE480A00F0E5FD9FED901A20EEA6
:105A4000010A30EE0B0AB3EE061A30EE01BA9FEDF2
:105A50008C0A7EEE00AAB0EE490A00F0D3FD2AEED1
:105A6000800A2AEE0B1A71EE00FA1FEE900AB0EED1
:105A7000490A019000F06EFEB0EE40AAB0EE680A4E
:105A800000F0C0FDB0EE40BAB0EE4D0A00F0BAFD35
:105A9000B0EE40CAB0EE480A00F0B4FDB0EE40EA05
:105AA000B0EE490A00F056FEB0EE40FAB0EE680AD9
:105AB00000F050FEB0EE409AB0EE4D0A00F04AFE03
:105AC000B0EE40DAB0EE480A00F044FE0198012141
:105AD00020F00040C7F68071B0EE402A8842B0EE58
